:02000000902846
:0E000600831203134D088A004C088200080084
:1000140003208A110A128000840ACC0A0319CD0A2B
:08002400F003031D0A28080087
:10002C003F308312031388002008F0002108F100F0
:10003C00F00DF10D70107008383E84000008870038
:10004C002F3088003F3088002608F0002708F10088
:10005C00F00DF10D70107008383E84000008870018
:10006C001F3088003F3088002208F0002308F10080
:10007C00F00DF10D70107008383E840000088700F8
:10008C003E3088003F3088002A08F0002B08F10031
:10009C00F00DF10D70107008383E840000088700D8
:1000AC003D3088003F3088002C08F0002D08F1000E
:1000BC00F00DF10D70107008383E840000088700B8
:1000CC003B3088003F3088002808F0002908F100F8
:1000DC00F00DF10D70107008383E84000008870098
:0A00EC00373088003F30880008001C
:1000F60083120313A801A901AC01AD01AA01AB014A
:10010600A201A301A001A101A601A701A401A501C5
:0A011600B601B701B401B5010800FD
:1001200064220F308316031386008701880183122F
:10013000061CC4288230FC00DD30FD00FD0B9E282B
:10014000FC0B9E2800000000061CC428AE01AF0175
:1001500000302F06031DAE2800302E06031DC428D4
:10016000061CC3288230FC00DD30FD00FD0BB628E4
:10017000FC0BB62800000000061CC3287B200130C1
:10018000AE000030AF00A828861CC7287B20061DC3
:100190001D298230FC00DD30FD00FD0BCD28FC0B5D
:1001A000CD2800000000061D1D2900303706031D64
:1001B000DB2800303606031DF12800303306031D0E
:1001C000E32801303206031DF028A80A0319A90A02
:1001D0000230AC070318AD0A0130B6000030B7009A
:1001E0001D2900303706031DF72801303606031D90
:1001F0001D2980302906F00080307002031D02297D
:1002000001302802031C1D298030F00080302D06AB
:100210007002031D0D292C08023C03181D29013012
:10022000A802031CA9030230AC02031CAD03B601F3
:10023000B7010130B2000030B30080303106F00069
:10024000803035067002031D272934083002031858
:100250001E2AA40A0319A50A8030033AF000803050
:1002600025067002031D36292408E73C03181E2AC0
:10027000A401A501A60A0319A70A8030F000803066
:1002800027067002031D46292608093C03181E2A6A
:10029000A601A701A00A0319A10A8030F00080304E
:1002A00021067002031D56292008053C03181E2A4A
:1002B000A001A101A20A0319A30A8030F000803036
:1002C00023067002031D66292208093C03181E2A12
:1002D000A201A301AA0A0319AB0A8030F000803002
:1002E0002B067002031D76292A08053C03181E2AD6
:1002F000AA01AB01AC0A0319AD0A00303706031D91
:10030000832900303606031DBC2900302906031D51
:100310008B2900302806031D9E298030F000803094
:100320002D067002031D96292C08093C03189E29EE
:10033000AC01AD01A80A0319A90ABB29003029069E
:10034000031DA42901302806031DBB298030F000BD
:1003500080302D067002031DAF292C08023C0318C3
:10036000BB290130AC000030AD00A801A90101306B
:10037000B2060030B3061E2A00302906031DC2292A
:1003800000302806031DD5298030F00080302D066E
:100390007002031DCD292C08093C0318D529AC0196
:1003A000AD01A80A0319A90A1E2A00302906031D57
:1003B000DB2901302806031DEC2900302D06031D22
:1003C000E32902302C06031DEC29AC01AD010130FC
:1003D000B2000030B3001E2A00302906031DF229A6
:1003E00001302806031D052A8030F00080302D06DC
:1003F0007002031DFD292C08093C0318052AAC01D5
:10040000AD01A80A0319A90A1E2A00302906031DF6
:100410000B2A02302806031D1E2A8030F00080308F
:100420002D067002031D162A2C08033C03181E2AF1
:10043000AC01AD01A801A901B201B301B40A0319CD
:10044000B50A80303106F000803035067002031D99
:100450002B2A3408300203182F2AB401B5011620C4
:040460009728312A7E
:1004C800203084002C3083120313F0003730CC0026
:0804D8000230CD000A200800EB
:04046E000034003422
:040472000534003419
:04047600003400341A
:04047A000034003416
:04047E000034003412
:04048200043400340A
:040486000534003405
:04048A000134003405
:04048E00003484347E
:0404920001340034FD
:0404960000340034FA
:04049A0000340034F6
:10049E003F340034063400345B3400344F340034BF
:1004AE00663400346D3400347D3400340734003447
:0804BE007F3400346F34003478
:02400E004A2F37
:00000001FF
